{"abi":[{"type":"constructor","inputs":[],"stateMutability":"nonpayable"},{"type":"function","name":"addTeaReward","inputs":[{"name":"_address","type":"address","internalType":"address"}],"outputs":[],"stateMutability":"payable"},{"type":"function","name":"balanceOf","inputs":[{"name":"_address","type":"address","internalType":"address"}],"outputs":[{"name":"","type":"uint256","internalType":"uint256"}],"stateMutability":"view"},{"type":"function","name":"claimCharge","inputs":[],"outputs":[],"stateMutability":"nonpayable"},{"type":"function","name":"claimTeaReward","inputs":[{"name":"_amount","type":"uint256","internalType":"uint256"}],"outputs":[],"stateMutability":"nonpayable"},{"type":"function","name":"feePercent","inputs":[],"outputs":[{"name":"","type":"uint256","internalType":"uint256"}],"stateMutability":"view"},{"type":"function","name":"owner","inputs":[],"outputs":[{"name":"","type":"address","internalType":"address"}],"stateMutability":"view"},{"type":"function","name":"renounceOwnership","inputs":[],"outputs":[],"stateMutability":"nonpayable"},{"type":"function","name":"totalTeaValue","inputs":[],"outputs":[{"name":"","type":"uint256","internalType":"uint256"}],"stateMutability":"view"},{"type":"function","name":"transferOwnership","inputs":[{"name":"newOwner","type":"address","internalType":"address"}],"outputs":[],"stateMutability":"nonpayable"},{"type":"function","name":"viewCharge","inputs":[],"outputs":[{"name":"","type":"uint256","internalType":"uint256"}],"stateMutability":"view"},{"type":"event","name":"OwnershipTransferred","inputs":[{"name":"previousOwner","type":"address","indexed":true,"internalType":"address"},{"name":"newOwner","type":"address","indexed":true,"internalType":"address"}],"anonymous":false},{"type":"error","name":"OwnableInvalidOwner","inputs":[{"name":"owner","type":"address","internalType":"address"}]},{"type":"error","name":"OwnableUnauthorizedAccount","inputs":[{"name":"account","type":"address","internalType":"address"}]}],"bytecode":{"object":"0x608060405260556002555f600455348015610018575f5ffd5b50335f73ffffffffffffffffffffffffffffffffffffffff168173ffffffffffffffffffffffffffffffffffffffff160361008a575f6040517f1e4fbdf7000000000000000000000000000000000000000000000000000000008152600401610081919061019f565b60405180910390fd5b6100998161009f60201b60201c565b506101b8565b5f5f5f9054906101000a900473ffffffffffffffffffffffffffffffffffffffff169050815f5f6101000a81548173ffffffffffffffffffffffffffffffffffffffff021916908373ffffffffffffffffffffffffffffffffffffffff1602179055508173ffffffffffffffffffffffffffffffffffffffff168173ffffffffffffffffffffffffffffffffffffffff167f8be0079c531659141344cd1fd0a4f28419497f9722a3daafe3b4186f6b6457e060405160405180910390a35050565b5f73ffffffffffffffffffffffffffffffffffffffff82169050919050565b5f61018982610160565b9050919050565b6101998161017f565b82525050565b5f6020820190506101b25f830184610190565b92915050565b610a8e806101c55f395ff3fe608060405260043610610090575f3560e01c8063715018a611610058578063715018a6146101545780637fd6f15c1461016a5780638da5cb5b14610194578063a4cd9311146101be578063f2fde38b146101e857610090565b80630e4b40431461009457806314465050146100b0578063512c2434146100d8578063519762aa146100ee57806370a0823114610118575b5f5ffd5b6100ae60048036038101906100a9919061076e565b610210565b005b3480156100bb575f5ffd5b506100d660048036038101906100d191906107cc565b610289565b005b3480156100e3575f5ffd5b506100ec610402565b005b3480156100f9575f5ffd5b5061010261049d565b60405161010f9190610806565b60405180910390f35b348015610123575f5ffd5b5061013e6004803603810190610139919061076e565b6104ae565b60405161014b9190610806565b60405180910390f35b34801561015f575f5ffd5b506101686104f4565b005b348015610175575f5ffd5b5061017e610507565b60405161018b9190610806565b60405180910390f35b34801561019f575f5ffd5b506101a861050d565b6040516101b5919061082e565b60405180910390f35b3480156101c9575f5ffd5b506101d2610534565b6040516101df9190610806565b60405180910390f35b3480156101f3575f5ffd5b5061020e6004803603810190610209919061076e565b61053d565b005b5f341161021b575f5ffd5b3460015f8373ffffffffffffffffffffffffffffffffffffffff1673ffffffffffffffffffffffffffffffffffffffff1681526020019081526020015f205f8282546102679190610874565b925050819055503460035f82825461027f9190610874565b9250508190555050565b8060015f3373ffffffffffffffffffffffffffffffffffffffff1673ffffffffffffffffffffffffffffffffffffffff1681526020019081526020015f20541015610309576040517f08c379a000000000000000000000000000000000000000000000000000000000815260040161030090610901565b60405180910390fd5b5f6127106002548361031b919061091f565b610325919061098d565b90505f818361033491906109bd565b90508260015f3373ffffffffffffffffffffffffffffffffffffffff1673ffffffffffffffffffffffffffffffffffffffff1681526020019081526020015f205f82825461038291906109bd565b925050819055508260035f82825461039a91906109bd565b925050819055508160045f8282546103b29190610874565b925050819055503373ffffffffffffffffffffffffffffffffffffffff166108fc8290811502906040515f60405180830381858888f193505050501580156103fc573d5f5f3e3d5ffd5b50505050565b61040a6105c1565b5f6004541161044e576040517f08c379a000000000000000000000000000000000000000000000000000000000815260040161044590610a3a565b60405180910390fd5b3373ffffffffffffffffffffffffffffffffffffffff166108fc60045490811502906040515f60405180830381858888f19350505050158015610493573d5f5f3e3d5ffd5b505f600481905550565b5f6104a66105c1565b600454905090565b5f60015f8373ffffffffffffffffffffffffffffffffffffffff1673ffffffffffffffffffffffffffffffffffffffff1681526020019081526020015f20549050919050565b6104fc6105c1565b6105055f610648565b565b60025481565b5f5f5f9054906101000a900473ffffffffffffffffffffffffffffffffffffffff16905090565b5f600354905090565b6105456105c1565b5f73ffffffffffffffffffffffffffffffffffffffff168173ffffffffffffffffffffffffffffffffffffffff16036105b5575f6040517f1e4fbdf70000000000000000000000000000000000000000000000000000000081526004016105ac919061082e565b60405180910390fd5b6105be81610648565b50565b6105c9610709565b73ffffffffffffffffffffffffffffffffffffffff166105e761050d565b73ffffffffffffffffffffffffffffffffffffffff16146106465761060a610709565b6040517f118cdaa700000000000000000000000000000000000000000000000000000000815260040161063d919061082e565b60405180910390fd5b565b5f5f5f9054906101000a900473ffffffffffffffffffffffffffffffffffffffff169050815f5f6101000a81548173ffffffffffffffffffffffffffffffffffffffff021916908373ffffffffffffffffffffffffffffffffffffffff1602179055508173ffffffffffffffffffffffffffffffffffffffff168173ffffffffffffffffffffffffffffffffffffffff167f8be0079c531659141344cd1fd0a4f28419497f9722a3daafe3b4186f6b6457e060405160405180910390a35050565b5f33905090565b5f5ffd5b5f73ffffffffffffffffffffffffffffffffffffffff82169050919050565b5f61073d82610714565b9050919050565b61074d81610733565b8114610757575f5ffd5b50565b5f8135905061076881610744565b92915050565b5f6020828403121561078357610782610710565b5b5f6107908482850161075a565b91505092915050565b5f819050919050565b6107ab81610799565b81146107b5575f5ffd5b50565b5f813590506107c6816107a2565b92915050565b5f602082840312156107e1576107e0610710565b5b5f6107ee848285016107b8565b91505092915050565b61080081610799565b82525050565b5f6020820190506108195f8301846107f7565b92915050565b61082881610733565b82525050565b5f6020820190506108415f83018461081f565b92915050565b7f4e487b71000000000000000000000000000000000000000000000000000000005f52601160045260245ffd5b5f61087e82610799565b915061088983610799565b92508282019050808211156108a1576108a0610847565b5b92915050565b5f82825260208201905092915050565b7f4e6f7420656e6f7567682062616c616e636500000000000000000000000000005f82015250565b5f6108eb6012836108a7565b91506108f6826108b7565b602082019050919050565b5f6020820190508181035f830152610918816108df565b9050919050565b5f61092982610799565b915061093483610799565b925082820261094281610799565b9150828204841483151761095957610958610847565b5b5092915050565b7f4e487b71000000000000000000000000000000000000000000000000000000005f52601260045260245ffd5b5f61099782610799565b91506109a283610799565b9250826109b2576109b1610960565b5b828204905092915050565b5f6109c782610799565b91506109d283610799565b92508282039050818111156109ea576109e9610847565b5b92915050565b7f4e6f206368617267657320746f207769746864726177000000000000000000005f82015250565b5f610a246016836108a7565b9150610a2f826109f0565b602082019050919050565b5f6020820190508181035f830152610a5181610a18565b905091905056fea2646970667358221220791ce0683090a2a7525886fec60aaca7133dd8ca0eae8e9609f45f6224fd1cc464736f6c634300081e0033","linkReferences":{}},"methodIdentifiers":{"addTeaReward(address)":"0e4b4043","balanceOf(address)":"70a08231","claimCharge()":"512c2434","claimTeaReward(uint256)":"14465050","feePercent()":"7fd6f15c","owner()":"8da5cb5b","renounceOwnership()":"715018a6","totalTeaValue()":"a4cd9311","transferOwnership(address)":"f2fde38b","viewCharge()":"519762aa"},"id":6}